:020000040800F2
:10000000C0050020C101000837290008E3260008C8
:1000100035290008B50F0008053100080000000070
:100020000000000000000000000000003B29000864
:10003000B70F000800000000392900083D2900081A
:10004000DB010008DB010008DB010008DB01000820
:10005000DB010008DB010008B90F0008DB01000824
:10006000DB010008DB010008DB010008DB01000800
:10007000DB010008DB010008DB010008DB010008F0
:10008000DB010008DB010008DB010008DB010008E0
:10009000DB010008DB010008DB010008DB010008D0
:1000A000DB010008DB010008DB010008DB010008C0
:1000B000DB010008DB010008DB010008DB010008B0
:1000C000DB010008DB010008DB010008DB010008A0
:1000D000DB010008312F0008DB010008DB0100080C
:1000E000DB010008DB010008DB010008DB01000880
:1000F000DB010008DB010008DB010008DB01000870
:10010000DB010008DB010008DB010008DB0100085F
:10011000DB010008DB010008DB010008DB0100084F
:10012000DB010008DB010008DB010008DB0100083F
:10013000DB010008DB010008DB010008DB0100082F
:10014000DB010008DB010008DB010008DB0100081F
:10015000DB010008DB010008DB010008DB0100080F
:10016000DB010008DB010008DB010008DB010008FF
:10017000DB010008DB010008DB01000800000000D3
:10018000DB010008DB010008DB010008DB010008DF
:10019000DB010008DB010008DB010008DB010008CF
:1001A000DB010008DB010008DB010008DFF80CD0F0
:1001B00000F046FC004800477D480008C0050020CC
:1001C0000648804706480047FEE7FEE7FEE7FEE7F1
:1001D000FEE7FEE7FEE7FEE7FEE7FEE7D5290008BB
:1001E000AD0100082DE9F05F0546002092469B46D0
:1001F00088460646814640241BE02846414647463D
:10020000224600F0C8F953465A46C01A914110D30D
:1002100011461846224600F0AFF92D1A67EB010887
:100220004F4622460120002100F0A6F917EB0009F5
:100230004E41201EA4F10104DFDC484631462A4627
:100240004346BDE8F09FD2B201E000F8012B491E01
:10025000FBD270470022F6E710B513460A46044663
:100260001946FFF7F0FF204610BD00000FB400B59F
:100270008DB010A909900B9000914FF0FF300A90BB
:1002800000200C9005480690054807906A4609A88A
:100290000F9900F0A5F90DB05DF814FBFD050008FD
:1002A0001B0600082DE9FF5F1D464FF0FF3BD5E917
:1002B000014691465F464FF00008A9697F1C0198EE
:1002C0008847296A824688470028F6D1BAF1FF3F5D
:1002D0000CD024F4C064002E19DD600614D5BAF1E8
:1002E0002B0F09D0BAF12D0F0ED103E0584604B000
:1002F000BDE8F09F44F48064A9697F1C0198884799
:10030000761E8246002E02DDBAF1300F03D0B9F11D
:10031000000F26D032E0A969761E44F400747F1CD9
:10032000019888478246002E05DDBAF1780F06D085
:10033000BAF1580F03D0B9F1000F10D01EE0B9F197
:10034000000F02D0B9F1100F18D1A969761E24F45C
:1003500000747F1C019888478246102002E0082024
:1003600000E00A20814609E008FB0908A969761E19
:1003700044F400747F1C019888478246002E05DDF6
:100380004946504600F017F90028EDDAE96901986E
:100390008847A00502D46FF00100A8E7E00725D147
:1003A000600613D5600502D5C8F1000000E04046A4
:1003B00029680A1D2A600968220501D5087015E020
:1003C000220701D5088011E008600FE02868011DB0
:1003D00029600068210502D580F8008006E0210729
:1003E00002D5A0F8008001E0C0F8008038467EE722
:1003F0002DE9FE4F81EA030404F0004421F000419E
:1004000000944FF0000B23F0004350EA01045ED04B
:1004100052EA03045BD0C3F30A54C1F30A552C44D7
:10042000A4F2F3340194A0FB0254C1F3130141F48C
:100430008011C3F3130343F4801301FB024400FB58
:10044000034E840A970A44EA815447EA8357A4FB7F
:10045000076802958D0A05FB07854FEA932C04FB7C
:100460000C542705029D4FEA065847EA1637B5EBAC
:1004700008056EEB070C870E920E47EA811742EAD9
:100480008312A7FB0201B6EB0B0164EB00042B0DFA
:1004900043EA0C335E1844EB1C50DA465146E7FB46
:1004A0000201C5F313044FEA0B3343EA14534FEA36
:1004B0000432019C43EA0603A4F10C040294009C5C
:1004C000CDE900B400F000F903B0BDE8F08F0020E2
:1004D0000146F9E70EB540F2334102910021CDE922
:1004E00000110A460B4600F0EFF803B000BD00F023
:1004F000004230F000400AD0C10D01F56071C0F338
:10050000160042EA0151C20840071143704700201B
:100510000146704701F0004330B421F0004150EA39
:10052000010206D00A0DA2F56072C1F31301002A80
:1005300002DC30BC00207047440F44EAC104C10013
:10054000E01830BC00EBC25000F078B830B50B4674
:10055000014600202022012409E021FA02F59D42F3
:1005600005D303FA02F5491B04FA02F52844151EC7
:10057000A2F10102F1DC30BD202A04DB203A00FAAE
:1005800002F1002070479140C2F1200320FA03F3EA
:10059000194390407047202A04DB203A21FA02F0E8
:1005A0000021704721FA02F3D040C2F120029140AD
:1005B0000843194670473A2800D2303820F020020C
:1005C000412A01D3A2F13700884201D34FF0FF3016
:1005D00070470000026811441378016018467047A4
:1005E000D160044951610449116200211161114631
:1005F00000F050BAD5050008890A0008426842B1E7
:10060000016811F8013B23B1521EC0E900121846DF
:1006100070470121C160881E704742685AB1C368A3
:10062000016843B983688B4205D0491E521CC0E95A
:100630000012002070474FF0FF3070470029A8BF1C
:100640007047401C490008BF20F00100704710B4FB
:10065000B0FA80FC00FA0CF050EA010404BF10BCB0
:10066000704749B1CCF1200421FA04F411FA0CF1DD
:1006700018BF012121430843A3EB0C01CB1D4FEA16
:1006800000614FEA102042BF002010BC704700EB11
:10069000C35010440029A4BF10BC7047401C49003F
:1006A00008BF20F0010010BC704710B5141E73F194
:1006B000000408DA401C41F1000192185B411A4322
:1006C00001D120F0010010BD2DE9F04D92469B466E
:1006D00011B1B1FA81F202E0B0FA80F22032904614
:1006E000FFF74AFF04460F4640EA0A0041EA0B01C1
:1006F00053465A46084313D0114653EA010019D015
:10070000C8F140025046FFF746FF05460E465046E8
:1007100059464246FFF730FF084305D0012004E068
:1007200020463946BDE8F08D0020054346EAE076D4
:100730002C4337430A986305E40AA0EB0800002223
:10074000FD0A44EA47540A3002D500200146E9E791
:10075000010510196941DDE9084500196941BDE845
:10076000F04DA2E72DE9FE4F804681EA0300C00F5D
:100770000C46009021F0004123F00045B8EB020048
:10078000A94105D24046214690461C460B460246EA
:1007900023F00040104347D0270DC7F30A00C3F3EE
:1007A0000A510290401A019040286BDAC3F31300FB
:1007B00040F4801B0098924620B10023D2EB030A3C
:1007C00063EB0B0B01985946C0F140025046FFF70E
:1007D000D3FE06460D4650465946019A00F042F9AE
:1007E00010EB08006141002487EA115284EAE773A4
:1007F0001A4340D0009A62B3019A012A4FEA075285
:1008000015DC001B61EB02014FF0004202EA0752C7
:10081000CDE90042001C41F5801132462B46FFF71E
:1008200053FF03B0BDE8F08F40462146F9E7001BB7
:1008300061EB0201001C41F5801300185B41201898
:10084000A2F5001747EB030140EAD570B6196D41D8
:1008500011E06D084FEA360645EAC0754FEA0752C7
:10086000001B61EB0201001C41F5801149084FEAB1
:1008700030000019514132462B4603B0BDE8F04F1D
:10088000FFF713BF0098012240000023D0EB0202C3
:1008900063EBE073009821464FEAE074B8EB000088
:1008A00061EB0401E9E783F000435BE781F000417D
:1008B00058E72DE9F04D81EA030404F0004B21F0E4
:1008C000004514464FF0000A23F0004150EA0502AB
:1008D00020D054EA01021DD0C5F30A570246C5F3E1
:1008E0001303C1F31300C1F30A5640F4801543F417
:1008F0008013A7EB0608101BD64608F2FD3873EBF1
:10090000050002D308F1010801E092185B41B8F13B
:10091000000F03DA00200146BDE8F08D00204FF4FF
:100920008011064684460EE0171B73EB050705D3BE
:10093000121B63EB050306434CEA010C49084FEA1E
:10094000300092185B4150EA0107EDD152EA0300F2
:1009500012D082EA040083EA0501084305D0101B87
:10096000AB4106D20122002306E000224FF00043F3
:1009700002E06FF0010253101AEB06004CEB085135
:1009800010EB0A0041EB0B01BDE8F04DFFF78DBE07
:1009900070B521F0004303430CD0C1F30A55002485
:1009A000D5EB040564EB0403D617AD1AB34102DBA3
:1009B0000020014670BD201841EB025170BD0EB5FC
:1009C000C10F80EAE0700844CA07002140F23343B7
:1009D0008DE80E000A460B46FFF776FE03B000BD19
:1009E000C1F30A52C1F3130140F2FF3341F4801105
:1009F0009A4202DA00200146704740F233439A429D
:100A0000A2F2334202DC5242FFF7C5BDFFF7B4BD8C
:100A100030B5041E71F1000404DB4FF00044404285
:100A200064EB0101141E73F1000405DB1C464FF05A
:100A30000043524263EB0403994208BF904230BD29
:100A4000064C074D06E0E06840F0010394E807001B
:100A500098471034AC42F6D3FFF7ACFBE44A0008E9
:100A6000044B0008202A06DBCB17203A41FA02F09B
:100A700043EAE07306E041FA02F3D040C2F12002FB
:100A80009140084319467047C0B24FF4F05100F04E
:100A9000E9B900002DE9F34F8BB04FF0000801F1E8
:100AA0000C000C464FF0010B46460DF1080A019070
:100AB0006269012101989047051E2DD0252D2CD06B
:100AC000216A8847C0B16269012101989047216A73
:100AD00088470028F7D1411E62690198904700E0DD
:100AE000761CA1690B988847216A88470028F7D1AE
:100AF000E1690B988847DBE7A1690B9888470746AF
:100B0000A84201D1761CD3E7E1690B9888477F1C86
:100B100002D1B8F1000F6FD046E1002762693D466F
:100B20003946019890472A2804D162690121019829
:100B300090470125DFF8849262690121019890476E
:100B4000A0F130010A290AD24F45E5DC07EB870105
:100B500000EB4107303FDFD445F01005ECE7E90634
:100B600001D46FF000476C280AD04C2814D06828B4
:100B700015D06A280DD074281CD07A281AD01DE010
:100B800062690121019890476C2802D045F0040564
:100B900014E045F002050DE045F020050AE0626929
:100BA000012101989047682802D045F0080505E02A
:100BB00045F400656269012101989047C4E9015735
:100BC00065283DD019DC58287AD00CDC452837D070
:100BD00004DC252826D0412831D131E046282FD009
:100BE00047282CD12CE05B2877D0612828D06328B7
:100BF0007CD0642823D15AE0D0E06F2848D008DCAC
:100C000066281DD067281BD0692821D06E2816D1F0
:100C100027E0702845D0732868D0752847D07828F9
:100C20000DD14DE0A1690B988847054625283FF472
:100C300069AFE1690B9888476D1C3FF46AAFB3E078
:100C400023466A466FF001000B99AFF300809EE0E7
:100C500045F040006060A80723464FF0000236D4FC
:100C60003EE0E8077FF447AF2068011D216000687F
:100C7000290501D506701BE7290701D5068017E76E
:100C8000A90703D5F117C0E9006111E706600FE776
:100C900045F040006060A80723464FF0080216D4D4
:100CA0001EE040F60E0125EA0100606016E045F006
:100CB00040006060A80723464FF00A0207D40FE007
:100CC00045F040006060A80708D5234610226FF069
:100CD00001000B99AFF3008059E007E02346102292
:100CE0006FF001000B99FFF7DDFA50E04FF00009BB
:100CF0004F464B46632802D05B2806D040E0E8060A
:100D000001D40120A06001273AE062690121019825
:100D100090475E2805D14FF0010962694946019864
:100D20009047216939B900210A46534643F82120EA
:100D3000491C0829FADBB0B3216969B9C11700EB76
:100D4000D16253110AEB830122F01F02821A0120A3
:100D50000B68904003430B60626901210198904742
:100D60005D28E8D1B9F1000F09D00020514651F8B3
:100D70002020D24341F82020401C0828F7DB02AB9A
:100D8000224600976FF001000B99AFF30080002816
:100D90000CDA401C08D1BBF1000F05D04FF0FF303A
:100DA0000DB0BDE8F08FFFE74046F9E7E90701D154
:100DB00008F1010806444FF0000B79E6CCCCCC0CCE
:100DC0002DE9F04D00231A461B1A8A4103DB00204F
:100DD0000146BDE8F08DC1F30A52C1F3130141F49D
:100DE00080154FF0000BD10702D100186D41521E43
:100DF0000027044640F2FF11384601EB620A3E46E6
:100E00008046024600204FF48011FFF7C4FBC21950
:100E10007141BB1846EB0100B4EB030C75EB000C01
:100E200004D3E41A65EB000517460E46241908F1B1
:100E300001006D4180463428E3DDF91946EB0600D8
:100E4000091BA84103D24FF0FF32134601E00022F4
:100E500013461BEB070046EB0A51BDE8F04DFFF7C8
:100E600024BC00007F2801D9002208E0064A02EBDA
:100E70005002C007127800D1120902F00F020120BF
:100E80009040084070470000104A0008464910B5DD
:100E90004A6822F440324A604A6843681A434A600A
:100EA00001684A6822F480724A6001684A680369EE
:100EB00042EA03224A6001684A6822F040724A60AE
:100EC00001684A6883681A434A6001688A6822F4A4
:100ED00000628A6001688A68C3681A438A60816A0E
:100EE0006FF07062D14201688A6822F070628A6095
:100EF00001688A680CD0836A1A438A6001688A682C
:100F000022F040528A6001688A68C36A1A4301E08D
:100F100022F040528A6001688A6822F002028A60E8
:100F200001688A68037E42EA43028A6090F82010D2
:100F3000002901684A680FD042F400624A600168E3
:100F40004A6822F460424A6001684A68174C436A62
:100F500004EB43331A4301E022F400624A60016863
:100F6000CA6A22F47002CA620168CA6A838B104C92
:100F700004EB03531A43CA6201688A6822F40072C0
:100F80008A6001688A6890F8303042EA43228A60B9
:100F900001688A6822F480628A6001688A68406910
:100FA00042EA8020886010BD0023014000E0FFFF7E
:100FB0000000F0FFFEE77047012000F0CFBA72B6E4
:100FC000FEE7000070B51B4800F0AEF94FF0FF31AE
:100FD000184800F053F900282AD1164800F0F0F81C
:100FE000154CA062FFF776FA41EC100B9FED131B36
:100FF00002F0C2F89FED131B51EC100B53EC112BB8
:10100000FFF7F6F9FFF786FA054600F0CDFB616AB7
:10101000401AC8280CD32846FFF769FA41EC100B98
:101020000AA053EC102B02F06FF800F0BDFB6062D9
:1010300070BD000058000020000000206666666653
:101040006666E6BF000000000040AE404C757820A8
:101050003D20252E3166200D0A00000078B50024C1
:10106000009490F83C20012A19D0012280F83C20FD
:101070000A6807230568092A13D9EE680A3A02EBC1
:10108000420293409E43EE600B788A680A3B03EB72
:1010900043039A400368DD682A43DA6010E00220C7
:1010A00078BD2E6902EB420293409E432E610B787D
:1010B0008A6803EB43039A4003681D692A431A6157
:1010C0004A681F23072A13D205686E6B521E02EB73
:1010D000820293409E436E630A8893B20A79521E3D
:1010E00002EB820293400268556B2B43536327E067
:1010F00005680D2A12D22E6BD21F02EB820293409A
:101100009E432E630B790A88DB1F92B203EB8303A5
:101110009A4003681D6B2A431A6311E0EE6A0D3A88
:1011200002EB820293409E43EE620B790A880D3BEC
:1011300092B203EB83039A400368DD6A2A43DA62C2
:101140001B4B0568194A9D420AD10D68122D07D123
:10115000556825F400055560556845F480055560CF
:1011600005689D421DD1134D0B68AB4201D0112B78
:1011700017D1536823F480035360536843F400038A
:1011800053600968A9420CD10B490C4A0968B1FBAC
:10119000F2F101EB8101490000E0491E00910029B4
:1011A000FBD180F83C40002078BD000000230140C6
:1011B00000200140120000103800002040420F00C3
:1011C0000068C06C704770B504004FF0000503D094
:1011D000206C002610B107E0012070BD204600F011
:1011E0001DF8666484F83C60206CC00610D4206C46
:1011F00020F4885040F0020020642046FFF746FEAD
:101200006664206C20F0020040F00100206400E0E1
:10121000012584F83C60284670BD000010B586B0FA
:10122000044614216846FFF715F8114920688842E2
:101230001CD110480021026842F4807202600068EC
:1012400000F4807005900B481438026842F00402E4
:101250000260006800F00400059001200090032067
:10126000CDE901016946044800F084F906B010BDDB
:101270000020014044380240000802402DE9F041BE
:10128000044600680D4681684FF0000749050BD5FC
:101290008068C00508D5206C40F02000206484F8E8
:1012A0003C700120BDE8F08100F07EFA064613E0B4
:1012B000681C11D025B100F077FA801BA8420BD929
:1012C00020680068800707D4206C40F00400206488
:1012D00084F83C700320E5E7206800688007E7D5C4
:1012E00021686FF012000860206C40F400702064E8
:1012F0002068816811F0405F13D1217E89B9C16AED
:1013000011F4700F02D0806840050AD4206C20F4DC
:1013100080702064206CC00403D4206C40F0010075
:1013200020640020BEE7000018B50021009190F86D
:101330003C20012A07D0012280F83C2002689368F3
:10134000DB0702D011E0022018BD936843F00103CF
:1013500093602E4A2E4B1268B2FBF3F202EB42026C
:1013600000E0521E0092002AFBD102689368DB075E
:1013700042D0036C40F20164A34343F480730364DE
:1013800053685B0505D5036C23F4005343F4805385
:101390000364036CDB0404D5436C23F0060343644D
:1013A00000E0416480F83C101A496FF0220313609A
:1013B00049680068CA06184906D0884224D1816865
:1013C00011F0405F13D01FE08842F8D0134A9042DA
:1013D00003D1D1F80423D206F1D0114A904213D19F
:1013E000D1F8041301F01F011029E8D30CE0816843
:1013F00041F08041816007E0016C41F0100101641F
:10140000416C41F001014164002018BD380000200A
:1014100040420F0000230140002001400021014014
:10142000002201402DE9F0410446876D00F0BCF92F
:10143000064694F835000025022806D08020606515
:1014400084F834500120BDE8F0812068016821F063
:10145000160101602068416921F080014161206C22
:1014600008B9A06C20B12068016821F00801016072
:101470002068016821F0010101600CE000F094F99E
:10148000801B052807D920206065032084F83500DB
:1014900084F83450D7E720680068C007EED194F88C
:1014A0005C103F208840B860012084F8350084F843
:1014B00034500020C7E790F83510022903D080216E
:1014C000416501207047052180F8351000680168EA
:1014D00021F00101016000207047000070B5044652
:1014E00000F062F90546601C02D00448007804440C
:1014F00000F05AF9401BA042FAD370BD2C00002026
:1015000010B5012818D10D4C0020207100F04CF9C5
:10151000A168411A142904D9A17849B10021A17008
:10152000A060A07830B106A0BDE8104001F0ECBD8D
:101530000121F4E705A0F7E710BD0000000000203E
:101540005245442D424C5545000000005245442D63
:10155000424C55452D475245454E0000044910B5B3
:101560000A68024202D00860FFF7CAFF10BD0000FF
:10157000143C01402DE9F84FDFF8F8A100220124C6
:1015800003254FF00F090AF1040BAAF1040E00BF66
:101590000B6804FA02F63340B34270D10F7907F0BA
:1015A0000307012F01D0022F16D187684FEA4208A6
:1015B00005FA08FC27EA0C07D1F80CC00CFA08FC65
:1015C0004CEA070CC0F808C04768B7430E79C6F369
:1015D000001696403E4346600E79F643B6070AD0A1
:1015E000C7684FEA420C05FA0CF6B7438E6806FA54
:1015F0000CF63E43C6600E7906F00306022E10D1AB
:10160000D60800EB8608D8F8206057074FEAD76C59
:1016100009FA0CF7BE430F6907FA0CF73743C8F80D
:10162000207006684FEA420C05FA0CF7BE430F79AA
:1016300007F0030707FA0CF7374307604E6816F404
:10164000403F1CD04C4E376847F4804737603668BF
:1016500022F0030706F480460096484E07EB060C7E
:10166000DCF8086897073F0F09FA07F826EA08062A
:10167000DFF80C81404503D14FF0000841E072E0F3
:10168000DFF80081404502D14FF0010839E0DFF872
:10169000F880404502D14FF0020832E0DFF8EC80DC
:1016A000404502D14FF003082BE0DFF8E4804045CD
:1016B00002D14FF0040824E0DFF8D880404502D181
:1016C0004FF005081DE0DFF8D080404502D14FF013
:1016D000060816E0DFF8C480404502D14FF0070845
:1016E0000FE0DFF8BC80404502D14FF0080808E069
:1016F000DFF8B080404502D14FF0090801E04FF01B
:101700000A0808FA07F848EA0608CCF80888DAF860
:1017100000605746D1F804C09E435FEACC2C00D548
:101720001E433E60DBF800605F46D1F804C09E4374
:101730005FEA8C2C00D51E433E60DEF800607746E1
:10174000D1F804C09E435FEA8C3C00D51E433E6046
:10175000084F083F3E68D1F804C09E435FEACC3C86
:1017600000D51E433E60521C102AFFF411AFBDE8A5
:10177000F88F0000083C014044380240003001402E
:10178000000002400004024000080240000C024039
:10179000001002400014024000180240001C0240E9
:1017A0000020024000240240014880687047000089
:1017B0002C00002002488168027811448160704743
:1017C0002C0000200B4810B5016841F40071016045
:1017D000016841F480610160016841F48071016039
:1017E000032000F06FF80F2000F006F800F024F856
:1017F000002010BD003C024070B50D4D04464FF472
:101800007A712878B1FBF0F00A490968B1FBF0F071
:1018100000F00CFB48B9102C07D200222146501EC4
:1018200000F030F800206C6070BD012070BD000039
:101830002C000020380000200A4808B5016841F457
:1018400080410160006800F4804000900548001F5E
:10185000016841F080510160006800F08050009004
:1018600008BD000044380240002809DB00F01F02D8
:10187000012191404009800000F1E020C0F80011F2
:1018800070470000F0B40E4B1B680C46C3F30223F4
:10189000C3F10705042D00D90425191D072901D21C
:1018A000002300E0DB1E012606FA05F1491E214057
:1018B00099409E40761E16403143F0BC01F04CBC6E
:1018C0000CED00E0064900F0070208684FF6FF0340
:1018D000184040EA0220034A1043086070470000A5
:1018E0000CED00E00000FA052DE9F0470E4605007A
:1018F00065D0DFF81481D8F80000F7B200F00F00CF
:10190000B04207D288F80070D8F8000000F00F004D
:10191000B04254D128683D4C810712D5400703D509
:10192000206840F4E05020602878000703D5206844
:1019300040F4604020602068A96820F0F00008436F
:1019400020602878C0072DD0304968680839012800
:1019500012D0022813D0032811D009688907002962
:101960002DDA216821F0030101432160FFF71CFFFC
:10197000814641F2883A0EE009688903EFE7096879
:101980008901ECE7FFF710FFA0EB0901514502D9EF
:101990000320BDE8F0872068696800F00C00B0EB18
:1019A000810FEFD1D8F80010404601F00F01B1428D
:1019B00007D90770006800F00F00B04201D0012085
:1019C000E7E72878400705D52068E96820F4E0506B
:1019D000084320602878000706D52068296920F48C
:1019E000604040EAC100206000F038F82168084AF1
:1019F000C1F30311515CC8400649086006480068FD
:101A0000FFF7FAFE0020C4E7003C0240083802401D
:101A100066490008380000203000002004480549CD
:101A200000680968044AC1F38221515CC8407047CC
:101A3000380000200838024076490008044805496B
:101A400000680968044AC1F34231515CC8407047DC
:101A5000380000200838024076490008154810B5C3
:101A6000006810F00C02144813D01449042A0FD057
:101A7000082A0ED10F4C241F2268236802F03F026F
:101A80005B0207D52068C0F38810A0FB010106E0C7
:101A9000084610BD2168C1F38811A1FB0001002395
:101AA000FEF7A0FB2168C1F30141491C4900B0FBCE
:101AB000F1F010BD083802400024F40040787D01A8
:101AC0002DE9F84F04006ED02078DFF84C93C00762
:101AD000A9F104054AD009F104000168C1F38101AC
:101AE000012908D00068C0F3810002280AD1D9F882
:101AF0000000400206D52868800337D560680028BA
:101B0000E1D033E06068B0F5803F10D0B0F5A02F91
:101B1000286810D020F480302860286820F48020C5
:101B200028606068A8B1FFF73FFE06460DE0286810
:101B300040F48030F4E740F480202860F7E700BFED
:101B4000FFF732FE801B642873D828688003F7D51E
:101B50000CE0FFF729FE064605E000BFFFF724FE74
:101B6000801B6428F0D828688003F7D42078DFF839
:101B7000AC8280074FF0000A3ED5A748001D0168DF
:101B800011F00C0F08D00068C0F3810002280BD1BF
:101B9000D9F80000400207D42868800716D5E0680D
:101BA000012800D112E033E1E068B8B10120C8F8A3
:101BB0000000FFF7F9FD064605E000BFFFF7F4FD62
:101BC000801B0228C0D828688007F7D528682169BB
:101BD00020F0F80040EAC10028600DE0C8F800A03D
:101BE000FFF7E2FD064604E0FFF7DEFD801B02285A
:101BF0001FD828688007F7D42078000722D5864FA1
:101C000087486169703771B101210160FFF7CCFD30
:101C1000064604E0FFF7C8FD801B022809D8386893
:101C20008007F7D50EE0C0F800A0FFF7BDFD06461F
:101C300005E082E0FFF7B8FD801B02287DD83868F8
:101C40008007F7D42078400768D5DFF8CCB10027AB
:101C50000BF13C0BDBF80000C0000BD4DBF80010EC
:101C600041F08051CBF80010DBF80000012700F0B4
:101C7000805000906B4E3068C00510D4306840F43E
:101C800080703060FFF790FD009005E0FFF78CFD5D
:101C90000099401A022850D83068C005F6D55E4E2B
:101CA000A0686C3601280FD00528306810D020F0CD
:101CB00001003060306820F004003060A068B8B1E6
:101CC000FFF772FD00900FE0306840F00100F4E78C
:101CD00040F004003060F7E7FFF766FD0099411A15
:101CE00041F28830814266D830688007F4D50EE032
:101CF000FFF75AFD009007E0FFF756FD0099411AE3
:101D000041F28830814256D830688007F4D42FB130
:101D1000DBF8001021F08051CBF80010A069C8B3A7
:101D20003D49091D0968C1F3810102294AD00228F1
:101D3000504607D0C8F8600000E03CE0FFF734FDF3
:101D400004463BE04746C8F86000FFF72DFD064615
:101D500005E000BFFFF728FD801B02282BD828686C
:101D60008001F7D4D4E907010843A16A2E4A490843
:101D700002EB0141626A41EA8211084394F82C1097
:101D800040EA0161C9F8001001203866FFF70CFD38
:101D9000044606E03EE000BFFFF706FD001B0228F8
:101DA00009D828688001F7D534E000BFFFF7FCFCB4
:101DB000001B022802D90320BDE8F88F28688001A3
:101DC000F4D427E00128F7D0D9F80000E26900F444
:101DD000800191421CD1226A00F03F01914217D14B
:101DE00047F6C071626A0140B1EB821F10D1A26A4E
:101DF0004FF0FF3300F4403103EB5202B1EB024FDE
:101E000006D194F82C1000F07060B0EB016F01D097
:101E10000120D1E70020CFE704380240000047420C
:101E2000800E4742007000400000FFFF10B5401ECA
:101E3000B0F1807F01D3012010BD4FF0E02460613C
:101E40000F21601701F088F90020A06107202061B0
:101E5000002010BD10B5040003D094F83D0010B16F
:101E600007E0012010BD002084F83C00204600F06F
:101E70001FF8022084F83D00211D206800F0B2FD0B
:101E8000012084F8460084F83E0084F83F0084F87E
:101E9000400084F8410084F8420084F8430084F84C
:101EA000440084F8450084F83D00002010BD000087
:101EB00008B501681248814208D11248016841F40E
:101EC00000310160006800F400300BE00D480E4A5C
:101ED000001F914208D1016841F080010160006853
:101EE00000F08000009008BD084A9142FBD10168D3
:101EF00041F480710160006800F48070F2E7000036
:101F00000044014044380240001C004000200040D2
:101F100070B586B0044614216846FEF79BF9246824
:101F20001E4D00231E4902221E48AC4210D10C68EF
:101F300044F020040C600968029201F02001059130
:101F40004021CDE900120321CDE9033169460DE0BE
:101F5000154E0925B4420DD10C6844F020040C60E4
:101F6000096801F020010591B1150FE0FFF702FBB0
:101F700006B070BD0D4EB442FAD10C6844F0200496
:101F80000C60096801F0200105917115CDE900127E
:101F900002AC694684E82C00E8E7000000440140F8
:101FA0003038024000140240001C00400020004075
:101FB00070B5044690F83C0000260D4601280FD06D
:101FC000012084F83C006AB1042A1DD0082A2FD0D1
:101FD0000C2A3FD00126002084F83C00304670BD1A
:101FE000022070BD206800F077FD2068816941F013
:101FF000080181612068816921F004018161206804
:1020000081692A69114311E0206800F095FD20687C
:10201000816941F4006181612068816921F48061F6
:102020008161206881692A6941EA02218161D2E7E0
:10203000206800F0B7FD2068C16941F00801C16166
:102040002068C16921F00401C1612068C1692A6961
:10205000114311E0206800F0D9FD2068C16941F406
:102060000061C1612068C16921F48061C16120689B
:10207000C1692A6941EA0221C161ACE710B50400D7
:1020800003D094F83D0010B107E0012010BD0020FE
:1020900084F83C00204600F01EF8022084F83D0041
:1020A000211D206800F09EFC012084F8460084F881
:1020B0003E0084F83F0084F8400084F8410084F832
:1020C000420084F8430084F8440084F8450084F812
:1020D0003D00002010BD704710B50446022249B1F2
:1020E00004290ED0082913D094F84100012816D0F5
:1020F000012010BD94F83E000128F9D184F83E205B
:102100000FE094F83F000128F2D184F83F2008E066
:1021100094F840000128EBD184F8402001E084F8D5
:1021200041200122206800F0C9FC16492068164AA7
:10213000884201D0904203D1436C43F4004343648E
:102140002068884213D0B0F1804F10D00F498842E8
:102150000DD00F4988420AD00E49884207D09042DC
:1021600005D00D49884202D00C49884204D18168CB
:1021700001F00701062903D0016841F00101016067
:10218000002010BD00000140000401400004004098
:1021900000080040000C00400040014000180040D2
:1021A00070477047F8B5016804460868CA684B690B
:1021B00010F00F0F4FF0000559D003F0010602F4A4
:1021C0009077374365D0C10705D0D10503D5616C41
:1021D00041F001016164410705D5D90703D0616C65
:1021E00041F002016164810705D5D90703D0616C14
:1021F00041F004016164010707D502F02001314379
:1022000003D0616C41F008016164616C00293AD02F
:10221000800604D5900602D5204600F04EFD2068C9
:102220004069616CC0F38010090700D460B3204698
:1022300000F01CFD20684069400621D5206814305C
:1022400050E8001F21F0400140E80012002AF5D1BB
:10225000E06BA8B16E490165E06BFFF72CF900282F
:1022600011D0E06B016D01B0BDE8F0400847830676
:102270000FD593060DD52046BDE8F84000F01DBDF2
:102280002046FFF78EFFF8BD2046FFF78AFF656402
:10229000F8BD266B2023012E7DD1C6067BD5D60640
:1022A00079D508684868009048694FF002064006F2
:1022B00041D5E16B086840680004000CE8D0A28DAD
:1022C0008242E5D9E085C869B0F5807F2DD02068CD
:1022D0000C3050E8001F21F4807140E80012002A01
:1022E000F5D12068143050E8001F21F0010140E8CA
:1022F0000012002AF5D12068143050E8001F21F0A8
:10230000400140E80012002AF5D184F842302563EC
:1023100020680C3050E8001F21F0100140E8001246
:10232000002AF5D1E06BFFF77DF86663A08DE18DA3
:10233000401A81B22AE0A08DE18D401A81B2E08D71
:102340000028A5D00029A3D022680C3252E8000F43
:1023500020F4907042E80007002FF5D12068143077
:1023600050E8002F22F0010240E80027002FF5D1AD
:1023700084F84230256320680C3050E8002F22F0AA
:10238000100240E80023002BF5D166632046FFF7DA
:1023900007FFF8BDFFE705062BD5150629D594F8EC
:1023A00041002128F5D1A068B0F5805F01D12069F6
:1023B000B0B1206A411C2162216800784860E08C3D
:1023C000401E0004000CE084E3D12068C16821F0C5
:1023D0008001C1602068C16841F04001C160D8E758
:1023E000206A0088C0F308004860206A801C2062D0
:1023F000E5E74006CDD55006CBD5CA68204622F089
:102400004002CA6084F8413000F06AF9C1E7000078
:102410005D2C000870B5040004D094F8410000253C
:1024200010B106E0012070BD84F84050204600F055
:1024300023F8242084F841002068C16821F4005169
:10244000C160204600F09AFC2068016921F49041A7
:1024500001612068416921F02A0141612068C16859
:1024600041F40051C1606564202084F8410084F883
:1024700042006563002070BD10B586B0044614218B
:102480006846FDF7E7FE18492068884229D11748B9
:102490000021026842F010020260006800F01000A3
:1024A000059012481438026842F001020260006888
:1024B00000F0010005904FF4C06000900220CDE9CB
:1024C0000101032003900720049069460848FFF7A4
:1024D00051F8002211462520FFF7D4F92520FFF7F7
:1024E000C3F906B010BD000000100140443802409E
:1024F0000000024090F84230202B01D002207047AB
:1025000021B11AB10023036300F0BEBC0120704763
:102510007CB52449884243D1234C244A2046217863
:10252000C0690D290ED00A290CD0132802D21154EB
:10253000401CE06102B00122BDE870401A49194810
:10254000FFF7D8BF0025155401AB6A4618A11748FC
:10255000FDF78CFE022801D0174819E00098642886
:1025600007D8C1B2E1700120207114A000F0CCFDA9
:1025700002E01A4800F0C8FD0199002907DD18A003
:10258000A16100F0C1FDA06900F030FD02E01CA0D7
:1025900000F0BAFD14210548E561FDF75BFEC9E7CF
:1025A0007CBD0000780100200000002044000020D5
:1025B00025642C2564000000944A00085265636578
:1025C00069766564206E6577206475747920637917
:1025D000636C653A20256425250D0A00504A0008E1
:1025E0005265636569766564206E657720706572F3
:1025F000696F643A202564206D730D0A00000000A5
:10260000496E76616C696420706572696F642076CA
:10261000616C75652E20506C6561736520696E7004
:10262000757420612076616C7565206772656174D0
:102630006572207468616E20302E0D0A0000000063
:102640002DE9F843044690F84100984616460D4699
:10265000202802D00220BDE8F88385B17EB1002099
:102660006064212084F84100FFF79EF8A68481462B
:10267000E684A0682027B0F5805F02D003E0012047
:10268000E9E7206910B12E4600250EE000260CE097
:102690008021204600F013FCA8B9C6B116F8010B42
:1026A00021684860E08C401EE084E08C4B464FF08F
:1026B0000002CDF800800028EAD14FF0400120460A
:1026C00000F0FDFB40B184F841700320C3E735F80A
:1026D000020BC0F30800E3E784F841700020BAE77A
:1026E0007047FEE71FB50021144800910191029147
:1026F000114A0391C0E9002181600124016104763F
:1027000080F820100E4AC0E90A21C461C16080F837
:1027100030104461FEF757FD08B1FEF750FC0A2067
:10272000CDE90004694605480294FEF797FC0028AD
:1027300001D0FEF744FC1FBD0020014058000020DE
:102740000100000F00B587B014216846FDF782FD37
:102750001A48016841F020010160016801F0200180
:102760000591016841F080010160016801F080017C
:102770000591016841F004010160016801F0040164
:102780000591016841F0010101600068694600F0AF
:1027900001000590012000904FF488100190022064
:1027A00002900748FEF7E6FE002211460620FFF7DA
:1027B00069F80620FFF758F807B000BD303802402E
:1027C0000000024010B588B01C216846FDF742FDAC
:1027D00015481449002401606321C0E9011440F246
:1027E0004731C0E9031480218161FFF733FB08B151
:1027F000FEF7E5FB0C48FFF741FC08B1FEF7DFFBF5
:102800006020CDE900040294002269460648049441
:10281000FFF7CEFB08B1FEF7D2FB0348FFF778FBCA
:1028200008B010BD00440140A000002010B588B0E1
:102830001C216846FDF70EFD15481449002401606F
:102840006321C0E9011440F24731C0E9031480213B
:102850008161FFF7FFFA08B1FEF7B1FB0C48FFF703
:102860000DFC08B1FEF7ABFB6020CDE9000402943B
:102870000022694606480494FFF79AFB08B1FEF768
:102880009EFB0348FFF744FB08B010BD001C00404E
:10289000E800002010B588B01C216846FDF7DAFC7E
:1028A00015481449002401606321C0E9011440F275
:1028B0004731C0E9031480218161FFF7CBFA08B1E9
:1028C000FEF77DFB0C48FFF7D9FB08B1FEF777FB5D
:1028D0006020CDE900040294002269460648049471
:1028E000FFF766FB08B1FEF76AFB0348FFF710FB32
:1028F00008B010BD00200040300100200C4810B589
:102900000A4901604FF4E1314160002181600C22ED
:10291000C160C0E904128161C161FFF77BFD00283D
:1029200003D0BDE81040FEF74ABB10BD00100140C7
:1029300078010020FEE7FEE770477047FEF73ABFD8
:1029400030B593B030216846FDF784FC14210CA803
:10295000FDF780FC1D480025016841F080510160B1
:10296000006800F0805011901948016821F440413E
:1029700041F4804101600068022400F4404011905D
:102980000120039010200490009406940820CDE9C3
:1029900007505420CDE9090404200B906846FFF746
:1029A0008FF808B172B6FEE70CA90F2081E831005C
:1029B0004FF480500F90109002210CA8FEF794FF66
:1029C000002801D072B6FEE713B030BD4038024097
:1029D000007000400248016841F4700101607047D6
:1029E00088ED00E0F0B50268294C2A4D2A4E2B4FA5
:1029F0002B4B4FF0804CA04209D0604507D0A84235
:102A000005D0B04203D0B84201D0984204D122F0A0
:102A1000700E4A6842EA0E02A0421BD0604519D0EF
:102A2000A84217D0B04215D0B84213D0984211D066
:102A30001C4DA8420ED01C4DA8420BD01B4DA842E5
:102A400008D01B4DA84205D01A4DA84202D01A4DFD
:102A5000A84203D122F44075CA682A434D6922F086
:102A600080022A4302608A68C2620A688262A042C7
:102A700001D0984201D109690163012141610169D5
:102A8000C90703D0016921F001010161F0BD000017
:102A9000000001400004004000080040000C00401D
:102AA0000004014000400140004401400048014052
:102AB00000180040001C00400020004010B501F04C
:102AC0001F030121046A99408C430462016A9A4001
:102AD0001143016210BD0000F0B5036A026A22F0E2
:102AE0000102026242688469124E24F073050C6888
:102AF0002C4323F002058B682B430D4DA84201D0D7
:102B0000B04205D123F00807CB683B4323F0040310
:102B1000A84201D0B04205D14D6922F4407215435C
:102B20008A692A4342608461496841630362F0BD57
:102B30000000014000040140F0B5026A036A23F07E
:102B400010030362436884690D6824F4E64444EA90
:102B500005248D6822F0200242EA05120F4D104E26
:102B6000A84201D0B04206D1CF6822F0800242EAEA
:102B7000071222F04002A84201D0B04207D14D69AD
:102B800023F4406343EA85038D6943EA8503436088
:102B90008461496881630262F0BD00000000014069
:102BA00000040140F0B5026A036A23F480730362F3
:102BB0004368C46922F4007224F073050C68124E55
:102BC0002C438D6842EA05220E4DA84201D0B04246
:102BD00006D1CF6822F4006242EA072222F4806222
:102BE000A84201D0B04207D14D6923F4405343EAD3
:102BF00005138D6943EA05134360C4614968C163E5
:102C00000262F0BD000001400004014030B5046ADA
:102C1000026A22F4805202624268C3690D6823F49A
:102C2000E64343EA05238D6824F4005444EA05345E
:102C3000084DA84202D0084DA84204D14D6922F4A3
:102C4000804242EA85124260C361496801640462BD
:102C500030BD0000000001400004014010B5806B51
:102C60000021C185C184FFF79CFA10BD01680C31B9
:102C700051E8002F22F4907241E80023002BF5D197
:102C80000168143151E8002F22F0010241E80023CD
:102C9000002BF5D1016B012909D101680C3151E8F4
:102CA000002F22F0100241E80023002BF5D1202153
:102CB00080F8421000210163704708B590F8421077
:102CC000222901D0022008BD82684FF480539A4225
:102CD00001D1016921B1816A9A421BD04AB10AE04F
:102CE0000268816A5268C2F308020A80816A891CFC
:102CF00008E0026972B10268526802F07F020A704D
:102D0000816A491C8162C18D491E0904090CC18573
:102D100003D01BE002685268F1E70168CA6822F03C
:102D20002002CA600168CA6822F48072CA60016821
:102D30004A6922F001024A61202180F842100021F4
:102D40004163026B012A03D0FFF7E2FB002008BDBC
:102D5000016301680C3151E8002F22F0100241E8B4
:102D60000023002BF5D101680A68D20602D50A6853
:102D700049680091818DFFF713FAE7E770B50446C3
:102D800000680169E26821F4405111430161216941
:102D9000A068E26908436169114308432168CA6871
:102DA00049F20C639A430243CA6020684169A269F0
:102DB00021F440711143416131492068884202D0B9
:102DC0003049884202D1FEF739FE01E0FEF726FEC7
:102DD000E2690023192164253226B2F5004F6268AA
:102DE00028D0A0FB0101930F9200FDF7FBF90146EB
:102DF000B0FBF5F06FF01802504301EB800006EBDA
:102E00000010B0FBF5F000F0F002B1FBF5F002EBC2
:102E10000012B1FBF5F06FF01803584301EB80008E
:102E200006EB0010B0FBF5F000F00F002168104435
:102E3000886070BDA0FB010192185B41FDF7D2F9DB
:102E40000146B0FBF5F00201B1FBF5F06FF018039D
:102E5000584301EB800006EBC000B0FBF5F000F03A
:102E6000F80002EB4002B1FBF5F0584301EB8000A3
:102E700006EBC000B0FBF5F000F00700D6E700005D
:102E8000001001400014014081628285C28500214A
:102E90004164222180F84210016921B10168CA68A9
:102EA00042F48072CA6001684A6942F001024A61D4
:102EB0000068C16841F02001C160002070472DE921
:102EC000F843984617460D460446089E24E0701CB9
:102ED00022D0FEF769FCA0EB0800B0421AD8CEB1B0
:102EE0002068C168490717D5802D15D0402D13D013
:102EF0000168C94309070FD40168002540680090A4
:102F00002046FFF7B3FE0820606484F8405001209B
:102F1000BDE8F8830320FBE72068006835EA00007D
:102F200004D00020B842D2D00020F1E70120F9E718
:102F30000148FFF737B900007801002070B5FEF7AF
:102F400033FC264C6169401A0A2846D3FEF72CFC54
:102F500060612179002011B1E178E1601FE0D4E9DE
:102F600003121144E160642905D36421E1604FF04C
:102F7000FF31216113E091B901212161A17811B1E3
:102F8000012908D00BE061780322491CB1FBF2F360
:102F900002FB131102E0617881B100216170637856
:102FA0000F49104A104D5BB1012B0FD0022B14D1E9
:102FB0000968486311684863E0680CE00221EDE7A6
:102FC0000968E3684B631168486304E00968486373
:102FD0001268E16851632968486370BD00000020F1
:102FE000E8000020A00000203001002070B5054658
:102FF0001C4804681CA0214600F086F8204905FB07
:1030000004F0B0FBF1F429461EA0641E00F07CF829
:10301000214623A000F078F8B4F5803F04D34FF6A2
:10302000FF7426A000F070F82B480168CC62C460E1
:103030002A480168CC62C46029480168CC62C46037
:1030400028A000F061F800212348FFF745F800218F
:103050002248FFF741F8BDE8704000212048FFF703
:103060003BB800003800002053797374656D436FDE
:103070007265436C6F636B203D20256C750A000000
:10308000A08601005265636569766564207065728B
:10309000696F6420286D7329203D20256C750A0016
:1030A0004152522076616C75652063616C63756C6A
:1030B00061746564203D20256C750A0041525220E0
:1030C00076616C7565206C696D6974656420746FD8
:1030D0002036353533350A00A0000020E8000020F6
:1030E000300100204152522076616C756520736575
:1030F00074207375636365737366756C6C792E0ADF
:1031000000000000FEE700000FB4054B10B503A956
:10311000044A029801F000F810BC5DF814FB0000AE
:10312000614800083C00002003B401984100009869
:1031300050EAC12018BF04204A0D18BF40F001001A
:1031400040F2FF72B2EB515F08BF40F0020001286D
:1031500008BF052002B070470907090E002804DBEC
:1031600000F1E02080F80014704700F00F0000F13B
:10317000E02080F8141D70472DE9F04D2DED040B73
:103180002DED0E8B96B0DDE92550279CDDF890A043
:1031900025F0004624F00048BAF1000F14BF0121C9
:1031A000002101EB4502FC4953184A1093422AD3EF
:1031B000002814BF0123002303EB44030B44F74909
:1031C0008B4220D358EA00019FEDF59B76D0DFF8C3
:1031D000D8B35D4503D1BAF1000F05D188E0BAF14B
:1031E000000F08BF002100D0012101EB450111F5BE
:1031F000001F08D8002814BF0121002101EB440161
:1032000011F5001F0BD99DED261B9DED240B16B06B
:10321000BDEC0E8B04B0BDE8F04D00F069BE002798
:10322000002DBCBFE149884521DAE1498845A8BFA6
:1032300002271CDAC3451ADCDE4901EB28511429A8
:1032400008DDC1F1340220FA02F101FA02F28242F1
:103250000DD108E058B9C1F1140228FA02F101FABF
:1032600002F2424503D101F00101C1F1020756EA21
:103270000A0124D1002C22DA002D18BF022F01D020
:10328000012F0AD0022000F07FFE16B0BDEC0E8B9D
:1032900004B0BDE8F04D00F013BE022000F074FE53
:1032A00000F00EFE51EC100B81F0004141EC100BD0
:1032B00016B0BDEC0E8B04B0BDE8F08D18E09FEDAC
:1032C000BEAB9FEDBF8B002871D1B848804522D19D
:1032D00005F1804010F5801008BFBAF1000F07D04B
:1032E000B3450ADC002CA8BF9DED260BE0DA0DE00B
:1032F000B0EE490AF0EE690ADAE7002C06DA9DED35
:10330000260B51EC100B81F000416FE0AE48784481
:1033100090ED000BCCE7D8454DD1002C48DA2EB10A
:1033200086423AD1BAF1000F42D126E0BAF1000F3D
:1033300013D0022000F028FE00F0F6FD8DED020B08
:103340009DED240B8DED000B10EE900A039961F3B7
:103350001E0003909DED020BAAE78DED02AB9DEDE3
:10336000240B1AEE901A10EE900A8DED000B61F30B
:103370001E0003909DED020B9AE78DED028B9DEDF3
:10338000240B18EE901A10EE900A8DED000B61F3ED
:103390001E0003909DED020B8AE709DA9DED240BD8
:1033A00051EC190B53EC102BFDF783FA1EE020E0D3
:1033B0009DED240B7CE786421BDAB4F1804F0DD0E3
:1033C000A4F10050B0F1FF5013D1002D11DB9DEDA1
:1033D000240B51EC100B01F08FFA07E09DED240B4C
:1033E00053EC102B51EC100B00F0C2BC41EC100B55
:1033F0005EE79DED240B51EC100B01F024FABAF1BD
:10340000000FCDE90E0142D19FED710B46B3A6F13D
:10341000E040B0F17F600CD05E4538D1002D00DA7D
:10342000A7B3022F0CBF01204FF0FF30FDF7C7FA02
:10343000DCE7002D01DD002C0DDA002D01DD002C74
:103440001FDB002D16DA002C14DB012F08BF9FEDC7
:10345000620B3FF42DAFB0EE4A0AF0EE6A0A27E79E
:10346000022F18BF002D0CD0012F0AD1002DFFF61E
:103470001FAF06E0002DB8BF002C08DA012F3FF483
:1034800017AFB0EE480AF0EE680A11E71BE0012022
:1034900000EBE57050EA070115D0791EB0EE498ABD
:1034A000F0EE698A084308BF9FED4D8B4E4800251A
:1034B000804570DD4D494E48884514DDB0420DDB36
:1034C000002C19DB2FE0012000F05EFD16B0BDECF2
:1034D0000E8B04B0BDE8F04D00F016BDB34502DC24
:1034E000002C09DC1FE0864202DA002C1BDA03E024
:1034F0005E452BDD002C16DD022000F045FD00F0BE
:1035000013FD8DED020B53EC1A2B51EC180BFCF74D
:103510006FFFCDE900010399019861F31E0003904C
:103520009DED020BC4E6022000F02EFD00F00CFD24
:1035300010EE901A18EE900A8DED020B8DED008BB7
:1035400061F31E0003909DED020BB1E69DED0E0BA5
:1035500053EC192B51EC100BFDF7A5F99FED260B41
:10356000CDE9080153EC102B9DED080B51EC100B2D
:10357000FCF73EFF9FED221B53EC112BFDF796F954
:103580009DED081B53EC112BFCF732FF9FED1E1B2A
:1035900053EC112B3CE08CE0FFFF1F00FFFF0F00FE
:1035A000000000000000F03F0000F03F0000F07F4E
:1035B0000000404301FCFFFF000000000000F07F1E
:1035C0000000000000000000F616000000000000EF
:1035D0000000000000000080000000000000F0FF7C
:1035E000000000000000F0BF0000E0410000F043D8
:1035F000FFFFEF3F00000000000000000000D03F90
:10360000555555555555D53F000000000000E03F89
:10361000FDF74CF99DED080B41EC1A0B53EC102B08
:1036200051EC100BFCF7E4FE53EC1A2BFCF7E0FE18
:1036300041EC1A0B9FEDFE0B53EC102B9DED080B8C
:1036400051EC100BFCF7D4FE41EC1B0B9FEDFA0B79
:1036500051EC1A0B53EC102BFCF7CAFE41EC1A0B81
:103660009FEDF70B53EC102B9DED080B51EC100B5D
:10367000FCF7BEFE53EC1A2BFDF715F941EC1A0BC3
:1036800051EC1B0B53EC1A2BFDF76CF80690CDE9AF
:1036900006519DED060B53EC1B2B51EC100BFDF767
:1036A00002F953EC1A2BFDF701F941EC100B00F075
:1036B000A1B90020B6F5801F0EDA9FEDE30B53ECA5
:1036C000102B9DED0E0B51EC100BFCF791FECDE98C
:1036D0000E016FF034000E4600EB2650A0F2FF37CB
:1036E000C6F31300DA4940F07F6646F04056884240
:1036F000D8BF002408DDD7498142C8BF012403DCBC
:103700000024A6F580167F1CD348784400EBC40043
:103710000F9690ED00CB9DED0E0B53EC1C2B51EC56
:10372000100BFDF7C0F89DED0E0B41EC1B0B53EC9D
:103730001C2B51EC100BFDF715F841EC100B51EC64
:10374000190B53EC102BFDF7B4F841EC1D0B51ECA9
:103750001B0B53EC1D2BFCF74BFE41EC1A0BBF4827
:103760008DED10AB7844109590ED000B4FF00050AC
:1037700040EA660000EB84408DED080B00F5002068
:1037800009909DED080B53EC1C2B51EC100BFDF731
:103790008AF89DED0E1B53EC112BFDF787F841ECD9
:1037A000100B53EC102B9DED100B51EC100BFCF794
:1037B0001FFE9DED080B41EC1C0B53EC102B9DEDF7
:1037C000100B51EC100BFCF713FE53EC1B2BFDF709
:1037D0006DF853EC1C2BFDF766F853EC1D2BFCF732
:1037E00007FE41EC1C0B53EC1A2B51EC1A0BFCF7A7
:1037F000FFFD41EC1B0B9A480621B0EE4B0AF0EEA0
:103800006B0A784400F0E0FAB0EE401AF0EE601A6D
:10381000B0EE41DAF0EE61DA53EC1B2B51EC1B0BEE
:10382000FCF7E6FD53EC1D2BFCF7E2FD9DED100BC4
:1038300041EC1B0B53EC1A2B51EC100BFCF792FFD5
:1038400053EC1C2BFCF7D4FD53EC1B2BFCF78AFF2D
:103850009DED100B41EC1B0B53EC102B51EC100B9E
:10386000FCF7C6FD41EC1D0B9FED7FEB53EC1E2BCF
:10387000FCF778FF53EC1B2BFCF774FF0890CDE9A5
:1038800008519DED080B53EC1E2B51EC100BFDF76E
:103890000AF853EC1D2BFDF706F853EC1B2BFDF734
:1038A00005F89DED080B41EC1D0B53EC102B9DED25
:1038B000100B51EC100BFCF79BFD41EC1B0B53EC78
:1038C0001A2B51EC1D0BFCF793FD9DED080B41EC01
:1038D0001A0B53EC102B51EC1C0BFCF789FD53EC2D
:1038E0001A2BFCF73FFF41EC1A0B51EC1B0B53EC6E
:1038F0001A2BFCF737FF0C90CDE90C519DED0C0B0A
:1039000053EC1B2B51EC100BFCF7CDFF53EC1A2B97
:10391000FCF7CCFF41EC1B0B9FED550B53EC102B30
:103920009DED0C0B51EC100BFCF762FD41EC1A0BFA
:103930009FED510B51EC1B0B53EC102BFCF758FD7A
:1039400041EC1B0B9FED4E0B53EC102B9DED0C0B24
:1039500051EC100BFCF74CFD53EC1B2BFCF702FF5A
:1039600041EC100B4848784400EBC40090ED001B7C
:1039700051EC100B53EC112BFCF7F4FE41EC1B0B3C
:103980003846FDF71CF8CDE9080153EC1B2B51EC30
:103990001A0BFCF7E7FE41EC100B3C48784400EBB7
:1039A000C40090ED00CB51EC100B53EC1C2BFCF73A
:1039B000D9FE9DED081B53EC112BFCF7D3FE0690AE
:1039C000CDE906519DED080B53EC102B9DED060B38
:1039D00051EC100BFCF767FF53EC1C2BFCF763FF5B
:1039E00053EC1A2BFCF75FFF53EC1B2BFCF75EFF2D
:1039F00041EC100B9DED261B53EC102B8DED001BA5
:103A000000959DED260B51EC100BFCF7F1FC9DEDA4
:103A1000000B41EC1A0B53EC102B9DED260B51ECD7
:103A2000100BFCF740FF9DED061B53EC112B2FE014
:103A3000000000604715F73FFE822B654715F73FF2
:103A400044DF5DF80BAE543E000000000000404330
:103A50008E9803007AB60B0072120000A0120000CC
:103A6000AA11000000000000000000000000084053
:103A7000000000E009C7EE3FFD033ADC09C7EE3F56
:103A8000F5015B14E02F3EBE36100000F00F000081
:103A9000FCF7AEFC53EC1A2BFCF764FE9DED060B15
:103AA00041EC1A0B53EC102B9DED000B51EC100B5D
:103AB000FCF79EFCCDE90C019DED0C0B51EC1A0BB3
:103AC00053EC102BFCF74EFECDE902010C46AA493F
:103AD0008C422FDB611A084318D19DED0C0B53EC7F
:103AE000102B9DED020B51EC100BFCF7DCFE41ECB2
:103AF0001B0B9FEDA30B51EC1A0B53EC102BFCF797
:103B000031FE53EC1B2BFCF783FF2DD2022000F07B
:103B10003BFA00F009FA10EE901A18EE900A8DEDBB
:103B2000020B8DED008B61F31E0003909DED020BE7
:103B3000FFF7BEBB944A24F00041914214D393494D
:103B4000214408437FF4EFAC9DED0C0B53EC102B9C
:103B50009DED020B51EC100BFCF7A5FE53EC1A2B5C
:103B6000FCF756FF7FF6DFAC24F000408849894A15
:103B7000002601EB205182422BDA481C4FF48011C1
:103B800021FA00F02044844AC0F30A517A44A1F299
:103B9000FF3192ED000B814A8DED080BCA4020EAFF
:103BA0000202C0F3130040F48010C1F1140120FAA6
:103BB00001F60992002CB8BF76429DED080B53EC3C
:103BC000102B9DED0C0B51EC100BFCF76CFECDE9AE
:103BD0000C019DED0C0B51EC1A0B53EC102BFCF768
:103BE000C1FD9FED6F0B0890CDE9085153EC102BF0
:103BF0009DED080B51EC100BFCF7FAFB41EC1B0B95
:103C00009FED690B53EC102B9DED080B51EC100B45
:103C1000FCF7EEFB9DED0C0B41EC1C0B53EC102B59
:103C20009DED080B51EC100BFCF73DFE53EC1A2BED
:103C3000FCF73CFE9FED5E1B53EC112BFCF7D8FB11
:103C400053EC1C2BFCF78EFD41EC1A0B51EC1B0BBB
:103C500053EC1A2BFCF786FDCDE902019DED020B1A
:103C600053EC1B2B51EC100BFCF71DFE53EC1A2BE5
:103C7000FCF71CFE9DED020B41EC1A0B53EC102BD4
:103C800051EC100BFCF7B4FBCDE908014A489DED5F
:103C9000080B0521784400F097F89DED081B51ECC6
:103CA000100B53EC112BFCF7A3FB9DED021B53EC07
:103CB000112BFCF7FBFDCDE906019DED020B53EC4A
:103CC0001A2B51EC100BFCF793FB53EC1A2BFCF75F
:103CD00049FD9FED3B0B41EC1A0B53EC102B9DED76
:103CE000060B51EC100BFCF7DEFD9DED060B41ECD5
:103CF0001B0B53EC102B9DED020B51EC100BFCF742
:103D000077FB53EC1B2BFCF7D4FD53EC1A2BFCF781
:103D1000CAFD9DED021B53EC112BFCF7C4FD53ECC7
:103D2000192BFCF7C3FDCDE9020101EB065001158B
:103D30000029C8BF039015DC9DED020B324651EC03
:103D4000100BFCF725FEFFF7EFF9042808BF00F081
:103D5000FBF832469DED020B51EC100BFCF718FE00
:103D6000CDE902019DED020B51EC180B53EC102B29
:103D7000FCF73EFBFFF73ABB00009040000000005C
:103D8000FE822B654715973C00CC904000346F3F76
:103D900001FCFFFF0000E03F780E0000FFFF0F0076
:103DA00000000000432EE63F396CA80C615C20BE89
:103DB000EF39FAFE422EE63F480D000000000000F9
:103DC000000000000000004070B504462DED028B9D
:103DD0004D1E00EBC500B0EE408AF0EE608A90ED1B
:103DE000000B35F0060017D053EC182B51EC100BDC
:103DF000FCF7FEFA41EC100B6D1E04EBC50090EDD4
:103E0000001B51EC100B53EC112BFCF7ABFC41ECFD
:103E1000100B35F00600E7D1022D36D0042D1CD052
:103E2000062D1CBFBDEC028B70BD53EC182B51EC62
:103E3000100BFCF7DDFA94ED0A1B53EC112BFCF789
:103E400091FC53EC182BFCF7D3FA94ED081B53ECC0
:103E5000112BFCF787FC41EC100B53EC182B51ECA9
:103E6000100BFCF7C5FA94ED061B53EC112BFCF775
:103E700079FC53EC182BFCF7BBFA94ED040B53ECD4
:103E8000102BFCF76FFC41EC100B53EC182B51EC92
:103E9000100BFCF7ADFA94ED021B53EC112BFCF761
:103EA00061FC53EC182BFCF7A3FA94ED001B53ECC8
:103EB000112BFCF757FCBDEC028B41EC100B70BDD5
:103EC0009FED070B10B553EC102B9FED070B51EC3A
:103ED000100BFCF7EEFC41EC100B10BD00000000D5
:103EE0000000000000000000000000000000F03FA3
:103EF00010B553EC112B51EC100BFCF733FC41ECDB
:103F0000100B10BD000000009FED050B10B553EC29
:103F1000102B51EC100BFCF7CCFC41EC100B10BD3E
:103F200000000000000000009FED050B10B553ECF1
:103F3000102B51EC100BFCF75BFA41EC100B10BD91
:103F400000000000000000709FED050B10B553EC61
:103F5000102B51EC100BFCF74BFA41EC100B10BD81
:103F6000000000000000001002E008C8121F08C195
:103F7000002AFAD170477047002001E001C1121FEA
:103F8000002AFBD17047000001490860704700001B
:103F9000400000202DE9FF5F82B00021DDE9043000
:103FA000020DDDF840B0034318D044F61050A2F2E1
:103FB000FF3242431514119801281FD0A5EB0B00C6
:103FC000401C5FEA000A4FF000064E4FDFF83891C0
:103FD000B046504615D5CAF1000413E011980124EB
:103FE0004AA3012801D16FEA0B010298119AC0E996
:103FF0000031C0E9024206B0BDE8F09FCBF10000FD
:10400000DFE704460021404A491842EB0450CDE95D
:10401000001012E0E00707D032463B4640464946D2
:10402000FCF7E6F98046894632463B46104619467B
:10403000FCF7DEF906460F466410002CEAD1DDE9F4
:104040000401DDE90023BAF1000F06DAFCF7D0F92C
:1040500042464B46FCF7CCF905E0FCF72AFC424609
:104060004B46FCF726FC04460E460022284BFCF784
:10407000CFFC03D84FF0FF30014607E00022254B6C
:1040800020463146FCF76EFBFCF7AAFC102409E041
:10409000002C0ADB0A220023FCF7A4F8039B303231
:1040A0001A55641E50EA0102F2D1641C039AC4F14D
:1040B00011031444119A012A03D0012208430DD19F
:1040C0000AE0084304D000204FF0110B119072E772
:1040D000A3EB0B056D1E0DE05B4504DD4FF0000208
:1040E00005F1010504E003DA4FF00002A5F1010536
:1040F000002AECD002981199C0E90231C0E90045CC
:1041000079E70000000014400000F03F300000009C
:104110000000F0430000E03F2DE9FF4F95B09B46C3
:104120008946064600250FE2252877D10024274638
:10413000F84A0121059400E0044316F8013F203BB2
:1041400001FA03F01042F7D130782A2811D06FF02D
:104150002F033078A0F13002092A16D8059A44F0CE
:10416000020402EB820203EB42021044761C05902B
:10417000EFE759F8042B0592002A03DA504244F481
:104180000054059044F00204761C30782E2816D195
:1041900016F8010F44F004042A280DD06FF02F0206
:1041A0003078A0F13003092B09D807EB870302EB25
:1041B0004303C718761CF3E759F8047B761C307864
:1041C0006C280FD006DC4C2817D068280DD06A2840
:1041D00014D104E0742810D07A280FD10DE044F4F3
:1041E00000140AE044F4801401E044F440147278AE
:1041F000824202D104F58014761C761C3078662841
:104200000BD013DC582877D009DC002875D045285E
:10421000F6D04628F4D047281AD19DE118E063284B
:1042200035D0642879D0652812D195E1702873D0F3
:1042300008DC6728F1D069286FD06E280DD06F2870
:1042400006D1B5E073282CD0752875D0782874D0A5
:104250005A46179990476D1C75E1C4F30250022825
:1042600009D003280DD0D9F8001004280DD00D6016
:1042700009F1040967E1D9F80010EA17C1E9005211
:10428000F6E7D9F800100D80F2E70D70F0E719F8A5
:10429000041B8DF8001000208DF80100EA46012073
:1042A00003E059F804AB4FF0FF3061074FF0000115
:1042B00002D40DE008F101018846B9420FDA8045C9
:1042C000F8DB1AF808100029F4D108E008F1010120
:1042D00088468142FADB1AF808100029F6D10598C1
:1042E0005B46A0EB080721463846179A00F094FA7F
:1042F000284400EB080507E04DE029E10DE01AF83D
:10430000010B5A4617999047B8F10108F7D25B465E
:1043100021463846179A13E142E00A220092C4F37C
:1043200002524FF0000A022A08D059F804CB032A9F
:104330004FEAEC710AD00DE029E02AE009F107010B
:1043400021F00702F2E802C1914609E00FFA8CFC65
:104350004FEAEC71042A03D14FFA8CFC4FEAEC715E
:10436000002907DA0A460021DCF1000C61EB0201AA
:104370002D2202E0220504D52B228DF804200122F3
:1043800003E0E20701D02022F7E7904659E00A2136
:1043900002E010220DE010214FF0000A00910BE026
:1043A00010224FF0000A44F004040827009203E0B2
:1043B00008224FF0000A0092C4F30252022A05D0EC
:1043C00059F804CB0021032A08D009E009F10701BC
:1043D00021F00702F2E802C1914605E01FFA8CFCC9
:1043E000042A01D10CF0FF0C4FF00008220728D559
:1043F000702806D0009B83F0100353EA0A0305D00F
:104400000EE040228DF80420012208E05CEA01025F
:1044100006D030228DF804208DF805000222904647
:10442000009B83F0080353EA0A030AD15CEA010205
:1044300001D1620705D530228DF804204FF0010824
:104440007F1E582804D034A003900EA802900DE0DF
:1044500036A0F9E753466046009AFBF7C3FE844650
:104460000398825C0298401E029002705CEA010090
:10447000F0D1029806A9081A00F1200A600702D5B7
:1044800024F4803400E00127574502DDA7EB0A0041
:1044900000E0002000EB0A01009005984144401A1A
:1044A0000590E00306D45B462146179A059800F074
:1044B000B3F90544002706E001A85A46C05D1799E4
:1044C00090476D1C7F1C4745F6DBE0030CD55B462F
:1044D0002146179A059800F09FF9054404E0302022
:1044E0005A46179990476D1C0099481E0090002964
:1044F000F5DC08E0029802995A460078491C0291BE
:10450000179990476D1CBAF10001AAF1010AF1DC7C
:1045100065E1000009280100303132333435363787
:1045200038396162636465660000000030313233FF
:10453000343536373839414243444546000000009F
:1045400000F058F90544761C307800287FF4ECAD73
:1045500019B02846BDE8F08F620700D4062709F19C
:10456000070222F0070CFCE80223E14603F00048B2
:104570005FEA080C02D00FF2702C0DE05FEA045CD9
:1045800002D50FF2682C07E05FEAC47C02D00FF27C
:10459000602C01E0AFF2700C4FF0FF3823F00043C5
:1045A000CDF850C065280CD006DC452809D0462837
:1045B0001DD047283DD13DE0662818D067287ED120
:1045C00038E00021112F01DB112000E0781CCDE93B
:1045D000000106A90EA8FFF7DDFCDDE90F010E9A28
:1045E00003910021009207F1010A04914DE04FF080
:1045F00000400097CDE9011006A90EA8FFF7CAFCFC
:10460000DDE90F0203920E9B11990022DDF80CA048
:104610000093049211B9791C00EB010AB7EB0A0070
:1046200004D4C0F1FF3007F1010A0490AAEB07009F
:10463000019044E0012F00DA01270021112F01DD54
:10464000112000E03846CDE9000106A90EA8FFF7C9
:10465000A1FCDDE90F010E9A039100210491009263
:10466000BA4621070CD40399514500DA8A46BAF1BB
:10467000010F05DD009AAAF10101515C302908D033
:10468000B84202DA10F1040F06DA0121CDE9011077
:1046900015E0AAF10101E9E7002805DC04990144CD
:1046A0000491AAEB000102E0411C514500DD8A465D
:1046B0000499401A401C01904FF0004002902007DE
:1046C00004D40198504501DBCDF8048000208DF81A
:1046D0004F0002980DF14F07B0F1004F25D02B206D
:1046E0000E9002984FF0020800280CDA4042029027
:1046F0002D200E9007E00A210298FBF727FF3031AA
:10470000029007F8011DB8F10001A8F10108F2DCE0
:1047100002980028EFD1791E0E980870307800F0CA
:10472000200040F0450007F8020D12A8C01B00F160
:1047300007081498007800B1012000EB0A010198E5
:1047400001EBE07105984144401A401E0590E003DA
:1047500006D45B462146179A059800F05DF805449B
:104760001498007818B15A46179990476D1CE003C9
:1047700024D55B462146179A059800F04DF805446C
:104780001CE00498002807DBDDE90301884203DD13
:104790000098405C179901E0179930205A469047DD
:1047A000049805F10105401C04900198401E0190F9
:1047B00004D12E205A46179990476D1CBAF100017A
:1047C000AAF1010ADDDC05E017F8010B5A4617993A
:1047D00090476D1CB8F10001A8F10108F4DC5B46BC
:1047E0002146179A0598ABE62D0000002B0000002B
:1047F000200000002DE9F041044600251E46174622
:10480000880404D405E039462020B0476D1C641E9E
:10481000F9D52846BDE8F0812DE9F0410446002590
:104820001E469046C80301D5302700E020278804A3
:1048300004D505E041463846B0476D1C641EF9D5E5
:104840002846BDE8F08182B0CDE9000121F00040AA
:1048500001909DED000B02B051EC100B7047000071
:1048600038B504468DF8000002230122694602484B
:10487000FDF7E6FE204638BD78010020FCF7A2FFD8
:10488000FEF75EF8FDF75EFFFDF7D0FFFDF79AFF3C
:10489000FEF700F8FEF732F8FDF724FF002111487B
:1048A000FDF71AFC00211048FDF716FC00210F4807
:1048B000FDF712FC01220E490E48FDF71BFE0C4CC1
:1048C000FEF73CFB0A20FCF709FEFCF76DFF216AAE
:1048D000401A0A28F4D3FCF775FBFCF765FF206249
:1048E000EEE70000E8000020A000002030010020DA
:1048F000000000207801002000B52DED048B83B06E
:1049000041EC190BFCF75CFA41EC180B18EE100A9D
:1049100018EE901A8DED008B002818BF0120084377
:1049200020F00040C0F17F6000F1E040C00F14D0E3
:1049300019EE101A19EE900A8DED009B002918BF90
:104940000121084320F00040C0F17F6000F1E04009
:10495000C00F04BF0120FFF717FB51EC180B03B089
:10496000BDEC048B00BD000000000000000001024F
:104970000304060708090000000001020304000008
:10498000000000000000F03F000000000000F83FC1
:1049900000000000000000000000004003B8E23FFB
:1049A000000000000000000006D0CF43EBFD4C3EAD
:1049B000033333333333E33FFFAB6FDBB66DDB3FA2
:1049C0004D268F515555D53F01411DA96074D13FEA
:1049D00065DBC9934A86CD3FEF4E454A287ECA3FE4
:1049E0003E5555555555C53F93BDBE166CC166BF66
:1049F0002CDE25AF6A56113FF16BD2C541BDBBBE5F
:104A0000D0A4BE726937663E0000000000000000BE
:104A1000DDDDDDDDDCBBBBDDDDDDDDDDDDDDDDDD0B
:104A2000988888888888888877777777778888884B
:104A300085555556666666666666666666688888E3
:104A40008333333222222222222222222228888DDC
:104A5000496E76616C69642064757479206379634A
:104A60006C652076616C75652E20506C6561736590
:104A700020696E70757420612076616C75652062A6
:104A800065747765656E203020616E64203130304A
:104A90002E0D0A00496E76616C696420696E70752E
:104AA0007420666F726D61742E20506C6561736541
:104AB00020696E70757420696E2074686520666F59
:104AC000726D61743A203C647574795F6379636CCC
:104AD000653E2C3C706572696F645F6D733E0D0AB4
:104AE00000000000044B000800000020440000000B
:104AF000683F0008484B0008440000207C05000087
:104B0000783F000864000000000000000000000082
:104B10000000000001000000000000000000000094
:104B20000000000000000000000000000000000085
:104B30000100000010000000000000000024F4004C
:084B400000000000000000006D
:04000005080001AD41
:00000001FF
