:020000040800F2
:10000000B00700204D02000817170008331500083C
:100010001517000843040008451D000800000000F3
:100020000000000000000000000000001B17000896
:100030004504000800000000191700081D170008FB
:1000400067020008670200086702000867020008EC
:1000500067020008670200084704000867020008FA
:1000600067020008670200086702000867020008CC
:1000700067020008670200086702000867020008BC
:1000800067020008670200086702000867020008AC
:10009000670200086702000867020008670200089C
:1000A000670200086702000867020008670200088C
:1000B000670200086702000867020008670200087C
:1000C000670200086702000867020008670200086C
:1000D00067020008A11C0008670200086702000808
:1000E000670200086702000867020008670200084C
:1000F000670200086702000867020008670200083C
:10010000670200086702000867020008670200082B
:10011000670200086702000867020008670200081B
:10012000670200086702000867020008670200080B
:1001300067020008670200086702000867020008FB
:1001400067020008670200086702000867020008EB
:1001500067020008670200086702000867020008DB
:1001600067020008670200086702000867020008CB
:10017000670200086702000867020008000000002C
:1001800067020008670200086702000867020008AB
:10019000670200086702000867020008670200089B
:1001A00067020008670200086702000800F002F812
:1001B00000F03CF80AA090E8000C82448344AAF1C5
:1001C0000107DA4501D100F031F8AFF2090EBAE8C3
:1001D0000F0013F0010F18BFFB1A43F0010318477B
:1001E0000C1C00002C1C0000103A24BF78C878C1F9
:1001F000FAD8520724BF30C830C144BF04680C602D
:10020000704700000023002400250026103A28BF74
:1002100078C1FBD8520728BF30C148BF0B60704778
:100220001FB501F0D1FD1FBD10B510BD00F0CFF816
:100230001146FFF7F5FF01F097FD00F0EDF803B46C
:10024000FFF7F2FF03BC00F0F5F800000948804713
:1002500009480047FEE7FEE7FEE7FEE7FEE7FEE7A8
:10026000FEE7FEE7FEE7FEE704480549054A064BC0
:1002700070470000B5170008AD010008B00100206C
:10028000B0070020B0030020B003002053EA020CA6
:1002900000F069802DE9F04B4FF00006002B1FBFE6
:1002A000B3FA83F503FA05F424FA05F65E4012BFAB
:1002B0001643B2FA82F502FA05F4C5F120051EBF15
:1002C00022FA05FC44EA0C04203556EA044C4FEAB5
:1002D000144418BF641C4FF000084FF0000990420E
:1002E00071EB030C39D3002919BFB1FA81F701FA78
:1002F00007F6B0FA80F700FA07F6C7F120071EBF2D
:1003000020FA07FC46EA0C062037B6FBF4FCA7EB04
:100310000507103F07F01F0BCBF120060CFA0BFB73
:100320002CFA06F644BFB3460026202FA4BF5E4633
:100330004FF0000B5BEA060C08BF4FF0010B19EB06
:100340000B09ABFB027C48EB0608C01B06FB02CC8A
:100350000BFB03CC71EB0C01C1E70B460246414697
:100360004846BDE8F08B13B54FF000004FF0000198
:10037000AFF30080BDE81C4070474FF0000200B5AD
:10038000134694469646203922BFA0E80C50A0E8B8
:100390000C50B1F12001BFF4F7AF090728BFA0E866
:1003A0000C5048BF0CC05DF804EB890028BF40F832
:1003B000042B08BF704748BF20F8022B11F0804F74
:1003C00018BF00F8012B704770477047704775469B
:1003D00000F02CF8AE4605006946534620F00700B1
:1003E000854618B020B5FFF73FFFBDE820404FF02D
:1003F00000064FF000074FF000084FF0000B21F00F
:100400000701AC46ACE8C009ACE8C009ACE8C009DB
:10041000ACE8C0098D46704710B50446AFF30080C4
:100420002046BDE81040FFF70ABF000000487047B3
:100430005001002001491820ABBEFEE72600020053
:100440007047FEE77047012000F084B872B6FEE7FF
:100450002DE9F0410446876D00F0A2F9064694F8B4
:1004600035000025022806D08020606584F83450CD
:100470000120BDE8F0812068016821F016010160CB
:100480002068416921F080014161206C08B9A06CAD
:1004900020B12068016821F008010160206801682E
:1004A00021F0010101600CE000F07AF9801B0528C1
:1004B00007D920206065032084F8350084F8345083
:1004C000D7E720680068C007EED194F85C103F20A1
:1004D0008840B860012084F8350084F8345000204A
:1004E000C7E790F83510022903D08021416501202B
:1004F0007047052180F835100068016821F001017E
:10050000016000207047000070B5044600F048F913
:100510000546601C02D004480078044400F040F90D
:10052000401BA042FAD370BD1400002010B5012872
:100530000BD100F035F906494A68821AC82A04D955
:100540000A781AB100220A70486010BD0122FAE749
:1005500000000020044910B50A68024202D0086079
:10056000FFF7E4FF10BD0000143C01402DE9F84FF7
:10057000DFF8F8A10022012403254FF00F090AF14A
:10058000040BAAF1040E00BF0B6804FA02F6334014
:10059000B34270D10F7907F00307012F01D0022F6A
:1005A00016D187684FEA420805FA08FC27EA0C07CB
:1005B000D1F80CC00CFA08FC4CEA070CC0F808C0D3
:1005C0004768B7430E79C6F3001696403E4346602F
:1005D0000E79F643B6070AD0C7684FEA420C05FA0F
:1005E0000CF6B7438E6806FA0CF63E43C6600E79E9
:1005F00006F00306022E10D1D60800EB8608D8F8C4
:10060000206057074FEAD76C09FA0CF7BE430F6911
:1006100007FA0CF73743C8F8207006684FEA420C17
:1006200005FA0CF7BE430F7907F0030707FA0CF73A
:10063000374307604E6816F4403F1CD04C4E376875
:1006400047F480473760366822F0030706F4804697
:100650000096484E07EB060CDCF8086897073F0F3A
:1006600009FA07F826EA0806DFF80C81404503D1AD
:100670004FF0000841E072E0DFF80081404502D110
:100680004FF0010839E0DFF8F880404502D14FF023
:10069000020832E0DFF8EC80404502D14FF0030859
:1006A0002BE0DFF8E480404502D14FF0040824E05D
:1006B000DFF8D880404502D14FF005081DE0DFF893
:1006C000D080404502D14FF0060816E0DFF8C48024
:1006D000404502D14FF007080FE0DFF8BC804045ED
:1006E00002D14FF0080808E0DFF8B080404502D1A1
:1006F0004FF0090801E04FF00A0808FA07F848EA45
:100700000608CCF80888DAF800605746D1F804C02B
:100710009E435FEACC2C00D51E433E60DBF80060B0
:100720005F46D1F804C09E435FEA8C2C00D51E437F
:100730003E60DEF800607746D1F804C09E435FEA71
:100740008C3C00D51E433E60084F083F3E68D1F800
:1007500004C09E435FEACC3C00D51E433E60521C61
:10076000102AFFF411AFBDE8F88F0000083C0140EB
:1007700044380240003001400000024000040240C2
:1007800000080240000C0240001002400014024029
:1007900000180240001C02400020024000240240D9
:1007A00001488068704700001400002002488168FA
:1007B0000278114481607047140000200B4810B586
:1007C000016841F400710160016841F480610160D9
:1007D000016841F480710160032000F06FF80F2080
:1007E00000F006F800F024F8002010BD003C0240A4
:1007F00070B50D4D04464FF47A712878B1FBF0F0D6
:100800000A490968B1FBF0F000F00CFB48B9102C64
:1008100007D200222146501E00F030F800206C6004
:1008200070BD012070BD00001400002020000020D9
:100830000A4808B5016841F480410160006800F48D
:10084000804000900548001F016841F08051016020
:10085000006800F08050009008BD0000443802405D
:10086000002809DB00F01F020121914040098000AF
:1008700000F1E020C0F8001170470000F0B40E4B0A
:100880001B680C46C3F30223C3F10705042D00D9EE
:100890000425191D072901D2002300E0DB1E0126D3
:1008A00006FA05F1491E214099409E40761E1640E9
:1008B0003143F0BC01F047BA0CED00E0064900F00E
:1008C000070208684FF6FF03184040EA0220034A77
:1008D00010430860704700000CED00E00000FA05CE
:1008E0002DE9F0470E46050065D0DFF81481D8F8F1
:1008F0000000F7B200F00F00B04207D288F8007095
:10090000D8F8000000F00F00B04254D128683D4CE8
:10091000810712D5400703D5206840F4E0502060DD
:100920002878000703D5206840F4604020602068E4
:10093000A96820F0F000084320602878C0072DD077
:10094000304968680839012812D0022813D00328DA
:1009500011D00968890700292DDA216821F00301E7
:1009600001432160FFF71CFF814641F2883A0EE007
:1009700009688903EFE709688901ECE7FFF710FFD1
:10098000A0EB0901514502D90320BDE8F08720689A
:10099000696800F00C00B0EB810FEFD1D8F80010BF
:1009A000404601F00F01B14207D90770006800F01E
:1009B0000F00B04201D00120E7E72878400705D5B5
:1009C0002068E96820F4E050084320602878000798
:1009D00006D52068296920F4604040EAC100206003
:1009E00000F038F82168084AC1F30311515CC8408F
:1009F0000649086006480068FFF7FAFE0020C4E7D1
:100A0000003C024008380240D21D000820000020AF
:100A1000180000200448054900680968044AC1F329
:100A20008221515CC84070472000002008380240F5
:100A3000E21D00080448054900680968044AC1F33A
:100A40004231515CC8407047200000200838024005
:100A5000E21D0008154810B5006810F00C0214489B
:100A600013D01449042A0FD0082A0ED10F4C241F8A
:100A70002268236802F03F025B0207D52068C0F3BA
:100A80008810A0FB010106E0084610BD2168C1F3F3
:100A90008811A1FB00010023FFF7F8FB2168C1F3D7
:100AA0000141491C4900B0FBF1F010BD083802407B
:100AB0000024F40040787D012DE9F84F04006ED049
:100AC0002078DFF84C93C007A9F104054AD009F15A
:100AD00004000168C1F38101012908D00068C0F356
:100AE000810002280AD1D9F80000400206D5286802
:100AF000800337D560680028E1D033E06068B0F546
:100B0000803F10D0B0F5A02F286810D020F480309E
:100B10002860286820F4802028606068A8B1FFF76A
:100B20003FFE06460DE0286840F48030F4E740F4CC
:100B300080202860F7E700BFFFF732FE801B6428A3
:100B400073D828688003F7D50CE0FFF729FE064626
:100B500005E000BFFFF724FE801B6428F0D828685A
:100B60008003F7D42078DFF8AC8280074FF0000ACA
:100B70003ED5A748001D016811F00C0F08D0006891
:100B8000C0F3810002280BD1D9F80000400207D43D
:100B90002868800716D5E068012800D112E033E10B
:100BA000E068B8B10120C8F80000FFF7F9FD06467B
:100BB00005E000BFFFF7F4FD801B0228C0D82868BD
:100BC0008007F7D52868216920F0F80040EAC100C5
:100BD00028600DE0C8F800A0FFF7E2FD064604E03B
:100BE000FFF7DEFD801B02281FD828688007F7D496
:100BF0002078000722D5864F87486169703771B128
:100C000001210160FFF7CCFD064604E0FFF7C8FDB7
:100C1000801B022809D838688007F7D50EE0C0F895
:100C200000A0FFF7BDFD064605E082E0FFF7B8FD36
:100C3000801B02287DD838688007F7D420784007C9
:100C400068D5DFF8CCB100270BF13C0BDBF80000D6
:100C5000C0000BD4DBF8001041F08051CBF800103D
:100C6000DBF80000012700F0805000906B4E3068E8
:100C7000C00510D4306840F480703060FFF790FDFC
:100C8000009005E0FFF78CFD0099401A022850D82B
:100C90003068C005F6D55E4EA0686C3601280FD0CE
:100CA0000528306810D020F001003060306820F056
:100CB00004003060A068B8B1FFF772FD00900FE04B
:100CC000306840F00100F4E740F004003060F7E7DE
:100CD000FFF766FD0099411A41F28830814266D8DB
:100CE00030688007F4D50EE0FFF75AFD009007E06A
:100CF000FFF756FD0099411A41F28830814256D8DB
:100D000030688007F4D42FB1DBF8001021F0805157
:100D1000CBF80010A069C8B33D49091D0968C1F3AB
:100D2000810102294AD00228504607D0C8F8600045
:100D300000E03CE0FFF734FD04463BE04746C8F8DE
:100D40006000FFF72DFD064605E000BFFFF728FD18
:100D5000801B02282BD828688001F7D4D4E907012A
:100D60000843A16A2E4A490802EB0141626A41EA3E
:100D70008211084394F82C1040EA0161C9F8001070
:100D800001203866FFF70CFD044606E03EE000BF98
:100D9000FFF706FD001B022809D828688001F7D557
:100DA00034E000BFFFF7FCFC001B022802D903203F
:100DB000BDE8F88F28688001F4D427E00128F7D037
:100DC000D9F80000E26900F4800191421CD1226A46
:100DD00000F03F01914217D147F6C071626A0140AD
:100DE000B1EB821F10D1A26A4FF0FF3300F4403103
:100DF00003EB5202B1EB024F06D194F82C1000F035
:100E00007060B0EB016F01D00120D1E70020CFE787
:100E10000438024000004742800E47420070004004
:100E20000000FFFF10B5401EB0F1807F01D301200C
:100E300010BD4FF0E02460610F21601700F083FFC8
:100E40000020A06107202061002010BD10B5040023
:100E500003D094F83D0010B107E0012010BD002040
:100E600084F83C00204600F01FF8022084F83D0082
:100E7000211D206800F0A6FC012084F8460084F8BB
:100E80003E0084F83F0084F8400084F8410084F874
:100E9000420084F8430084F8440084F8450084F854
:100EA0003D00002010BD000008B5016812488142D5
:100EB00008D11248016841F400310160006800F473
:100EC00000300BE00D480E4A001F914208D1016826
:100ED00041F080010160006800F08000009008BDD2
:100EE000084A9142FBD1016841F4807101600068B9
:100EF00000F48070F2E700000044014044380240F2
:100F0000001C00400020004070B586B0044614214B
:100F10006846FFF732FA24681E4D00231E4902225C
:100F20001E48AC4210D10C6844F020040C600968E3
:100F3000029201F0200105914021CDE90012032128
:100F4000CDE9033169460DE0154E0925B4420DD1B6
:100F50000C6844F020040C60096801F02001059140
:100F6000B1150FE0FFF702FB06B070BD0D4EB442A5
:100F7000FAD10C6844F020040C60096801F02001EB
:100F800005917115CDE9001202AC694684E82C0088
:100F9000E8E70000004401403038024000140240FD
:100FA000001C00400020004070B5044690F83C0052
:100FB00000260D4601280FD0012084F83C006AB1BC
:100FC000042A1DD0082A2FD00C2A3FD00126002049
:100FD00084F83C00304670BD022070BD206800F0EF
:100FE0006BFC2068816941F008018161206881699A
:100FF00021F004018161206881692A69114311E0AF
:10100000206800F089FC2068816941F400618161F9
:101010002068816921F480618161206881692A6981
:1010200041EA02218161D2E7206800F0ABFC206830
:10103000C16941F00801C1612068C16921F0040162
:10104000C1612068C1692A69114311E0206800F07C
:10105000CDFC2068C16941F40061C1612068C169AB
:1010600021F48061C1612068C1692A6941EA0221D5
:10107000C161ACE710B5040003D094F83D0010B195
:1010800007E0012010BD002084F83C00204600F05D
:101090001EF8022084F83D00211D206800F092FB1C
:1010A000012084F8460084F83E0084F83F0084F86C
:1010B000400084F8410084F8420084F8430084F83A
:1010C000440084F8450084F83D00002010BD7047BE
:1010D00010B50446022249B104290ED0082913D0C4
:1010E00094F84100012816D0012010BD94F83E006C
:1010F0000128F9D184F83E200FE094F83F00012840
:10110000F2D184F83F2008E094F840000128EBD1A8
:1011100084F8402001E084F841200122206800F09A
:10112000BDFB16492068164A884201D0904203D17F
:10113000436C43F4004343642068884213D0B0F109
:10114000804F10D00F4988420DD00F4988420AD0F5
:101150000E49884207D0904205D00D49884202D0FE
:101160000C49884204D1816801F00701062903D0A7
:10117000016841F001010160002010BD0000014044
:10118000000401400004004000080040000C004042
:10119000004001400018004070477047F8B50168F2
:1011A00004460868CA684B6910F00F0F4FF000053D
:1011B00059D003F0010602F49077374365D0C10798
:1011C00005D0D10503D5616C41F00101616441078F
:1011D00005D5D90703D0616C41F002016164810734
:1011E00005D5D90703D0616C41F0040161640107A2
:1011F00007D502F02001314303D0616C41F00801B2
:101200006164616C00293AD0800604D5900602D54D
:10121000204600F042FC20684069616CC0F38010F9
:10122000090700D460B3204600F010FC2068406934
:10123000400621D52068143050E8001F21F04001FD
:1012400040E80012002AF5D1E06BA8B16E490165B3
:10125000E06BFFF746F9002811D0E06B016D01B09B
:10126000BDE8F040084783060FD593060DD520460C
:10127000BDE8F84000F011BC2046FFF78EFFF8BD36
:101280002046FFF78AFF6564F8BD266B2023012EF8
:101290007DD1C6067BD5D60679D50868486800900A
:1012A00048694FF00206400641D5E16B0868406886
:1012B0000004000CE8D0A28D8242E5D9E085C8691F
:1012C000B0F5807F2DD020680C3050E8001F21F44D
:1012D000807140E80012002AF5D12068143050E8EF
:1012E000001F21F0010140E80012002AF5D120681A
:1012F000143050E8001F21F0400140E80012002A9D
:10130000F5D184F84230256320680C3050E8001F86
:1013100021F0100140E80012002AF5D1E06BFFF740
:1013200097F86663A08DE18D401A81B22AE0A08D06
:10133000E18D401A81B2E08D0028A5D00029A3D00C
:1013400022680C3252E8000F20F4907042E8000747
:10135000002FF5D12068143050E8002F22F0010250
:1013600040E80027002FF5D184F84230256320683B
:101370000C3050E8002F22F0100240E80023002B30
:10138000F5D166632046FFF707FFF8BDFFE70506C6
:101390002BD5150629D594F841002128F5D1A06850
:1013A000B0F5805F01D12069B0B1206A411C216293
:1013B000216800784860E08C401E0004000CE08446
:1013C000E3D12068C16821F08001C1602068C16854
:1013D00041F04001C160D8E7206A0088C0F30800EE
:1013E0004860206A801C2062E5E74006CDD55006A3
:1013F000CBD5CA68204622F04002CA6084F841304A
:1014000000F096F8C1E700003D1A000870B504002E
:1014100004D094F84100002510B106E0012070BD11
:1014200084F84050204600F023F8242084F841003E
:101430002068C16821F40051C160204600F08EFB95
:101440002068016921F4904101612068416921F01F
:101450002A0141612068C16841F40051C16065649E
:10146000202084F8410084F842006563002070BDAC
:1014700010B586B0044614216846FEF77EFF184971
:101480002068884229D117480021026842F01002E2
:101490000260006800F010000590124814380268DD
:1014A00042F001020260006800F0010005904FF474
:1014B000C06000900220CDE90101032003900720C5
:1014C000049069460848FFF751F80022114625208C
:1014D000FFF7D4F92520FFF7C3F906B010BD0000CF
:1014E00000100140443802400000024090F84230B1
:1014F000202B01D00220704721B11AB100230363D1
:1015000000F0B2BB01207047074988420BD1074861
:101510008178642900D96421417004490122891C21
:101520000148FFF7E3BF70470801002000000020DA
:101530007047FEE700B587B014216846FEF71DFF2F
:101540001648016841F020010160016801F02001A6
:101550000591016841F080010160016801F080019E
:101560000591016841F0010101600068694600F0E1
:1015700001000590012000904FF488100190022096
:1015800002900748FEF7F2FF002211460620FFF7FF
:1015900075F90620FFF764F907B000BD3038024046
:1015A0000000024010B588B01C216846FEF7E5FE39
:1015B00015481449002401606321C0E9011440F278
:1015C0004731C0E9031480218161FFF73FFC08B176
:1015D000FEF73CFF0C48FFF74DFD08B1FEF736FF64
:1015E0006020CDE900040294002269460648049474
:1015F000FFF7DAFC08B1FEF729FF0348FFF784FC88
:1016000008B010BD004401403000002010B588B083
:101610001C216846FEF7B1FE1548144900240160FC
:101620006321C0E9011440F24731C0E9031480216D
:101630008161FFF70BFC08B1FEF708FF0C48FFF7CC
:1016400019FD08B1FEF702FF6020CDE90004029405
:101650000022694606480494FFF7A6FC08B1FEF78D
:10166000F5FE0348FFF750FC08B010BD001C004019
:101670007800002010B588B01C216846FEF77DFE7A
:1016800015481449002401606321C0E9011440F2A7
:101690004731C0E9031480218161FFF7D7FB08B10E
:1016A000FEF7D4FE0C48FFF7E5FC08B1FEF7CEFECE
:1016B0006020CDE9000402940022694606480494A3
:1016C000FFF772FC08B1FEF7C1FE0348FFF71CFCF0
:1016D00008B010BD00200040C00000200C4810B52C
:1016E0000A4901604FF4E1314160002181600C2220
:1016F000C160C0E904128161C161FFF787FE002863
:1017000003D0BDE81040FEF7A1BE10BD001001409F
:1017100008010020FEE7FEE770477047FFF746B874
:1017200030B593B030216846FEF727FE14210CA88F
:10173000FEF723FE1D480025016841F0805101603D
:10174000006800F0805011901948016821F4404170
:1017500041F4804101600068022400F4404011908F
:101760000120039010200490009406940820CDE9F5
:1017700007505420CDE9090404200B906846FFF778
:101780009BF908B172B6FEE70CA90F2081E8310081
:101790004FF480500F90109002210CA8FFF7A0F892
:1017A000002801D072B6FEE713B030BD40380240C9
:1017B000007000400248016841F470010160704708
:1017C00088ED00E0F0B50268294C2A4D2A4E2B4FD7
:1017D0002B4B4FF0804CA04209D0604507D0A84267
:1017E00005D0B04203D0B84201D0984204D122F0D3
:1017F000700E4A6842EA0E02A0421BD0604519D022
:10180000A84217D0B04215D0B84213D0984211D098
:101810001C4DA8420ED01C4DA8420BD01B4DA84217
:1018200008D01B4DA84205D01A4DA84202D01A4D2F
:10183000A84203D122F44075CA682A434D6922F0B8
:1018400080022A4302608A68C2620A688262A042F9
:1018500001D0984201D10969016301214161016907
:10186000C90703D0016921F001010161F0BD000049
:10187000000001400004004000080040000C00404F
:101880000004014000400140004401400048014084
:1018900000180040001C00400020004010B501F07E
:1018A0001F030121046A99408C430462016A9A4033
:1018B0001143016210BD0000F0B5036A026A22F014
:1018C0000102026242688469124E24F073050C68BA
:1018D0002C4323F002058B682B430D4DA84201D009
:1018E000B04205D123F00807CB683B4323F0040343
:1018F000A84201D0B04205D14D6922F4407215438F
:101900008A692A4342608461496841630362F0BD89
:101910000000014000040140F0B5026A036A23F0B0
:1019200010030362436884690D6824F4E64444EAC2
:1019300005248D6822F0200242EA05120F4D104E58
:10194000A84201D0B04206D1CF6822F0800242EA1C
:10195000071222F04002A84201D0B04207D14D69DF
:1019600023F4406343EA85038D6943EA85034360BA
:101970008461496881630262F0BD0000000001409B
:1019800000040140F0B5026A036A23F48073036225
:101990004368C46922F4007224F073050C68124E87
:1019A0002C438D6842EA05220E4DA84201D0B04278
:1019B00006D1CF6822F4006242EA072222F4806254
:1019C000A84201D0B04207D14D6923F4405343EA05
:1019D00005138D6943EA05134360C4614968C16317
:1019E0000262F0BD000001400004014030B5046A0D
:1019F000026A22F4805202624268C3690D6823F4CD
:101A0000E64343EA05238D6824F4005444EA053490
:101A1000084DA84202D0084DA84204D14D6922F4D5
:101A2000804242EA85124260C361496801640462EF
:101A300030BD0000000001400004014010B5806B83
:101A40000021C185C184FFF7A8FB10BD01680C31DE
:101A500051E8002F22F4907241E80023002BF5D1C9
:101A60000168143151E8002F22F0010241E80023FF
:101A7000002BF5D1016B012909D101680C3151E826
:101A8000002F22F0100241E80023002BF5D1202185
:101A900080F8421000210163704708B590F84210A9
:101AA000222901D0022008BD82684FF480539A4257
:101AB00001D1016921B1816A9A421BD04AB10AE081
:101AC0000268816A5268C2F308020A80816A891C2E
:101AD00008E0026972B10268526802F07F020A707F
:101AE000816A491C8162C18D491E0904090CC185A6
:101AF00003D01BE002685268F1E70168CA6822F06F
:101B00002002CA600168CA6822F48072CA60016853
:101B10004A6922F001024A61202180F84210002126
:101B20004163026B012A03D0FFF7EEFC002008BDE1
:101B3000016301680C3151E8002F22F0100241E8E6
:101B40000023002BF5D101680A68D20602D50A6885
:101B500049680091818DFFF71FFBE7E770B50446E8
:101B600000680169E26821F4405111430161216973
:101B7000A068E26908436169114308432168CA68A3
:101B800049F20C639A430243CA6020684169A26922
:101B900021F440711143416131492068884202D0EB
:101BA0003049884202D1FEF745FF01E0FEF732FFDF
:101BB000E2690023192164253226B2F5004F6268DC
:101BC00028D0A0FB0101930F9200FEF75FFB0146B6
:101BD000B0FBF5F06FF01802504301EB800006EB0C
:101BE0000010B0FBF5F000F0F002B1FBF5F002EBF5
:101BF0000012B1FBF5F06FF01803584301EB8000C1
:101C000006EB0010B0FBF5F000F00F002168104467
:101C1000886070BDA0FB010192185B41FEF736FBA6
:101C20000146B0FBF5F00201B1FBF5F06FF01803CF
:101C3000584301EB800006EBC000B0FBF5F000F06C
:101C4000F80002EB4002B1FBF5F0584301EB8000D5
:101C500006EBC000B0FBF5F000F00700D6E700008F
:101C6000001001400014014081628285C28500217C
:101C70004164222180F84210016921B10168CA68DB
:101C800042F48072CA6001684A6942F001024A6106
:101C90000068C16841F02001C16000207047000069
:101CA0000148FFF77BBA000008010020F0B5204989
:101CB000002001F108024C780D781E4E1E4907469F
:101CC0000DB902280AD052F82030012B51F82030EB
:101CD00007D05B1E41F820300DD00FE0306847631D
:101CE000F0BD5B1C41F82030A34207D341F82040EF
:101CF0004FF0FF3300E0012342F8203038B10128D3
:101D00000BD002280FD0401C0328D9DBF0BD0B4BB1
:101D100008681B6858630120D2E7094B48681B68B4
:101D200058630220CCE7886831684863F0BD000042
:101D300000000020C00000202400002078000020C7
:101D400030000020FEE70907090E002804DB00F13F
:101D5000E02080F80014704700F00F0000F1E02050
:101D600080F8141D70470000FEF728FDFFF7D8FC2F
:101D7000FFF7E0FBFFF74AFCFFF714FCFFF77AFCE4
:101D8000FFF7ACFC00210B48FFF7A2F900210A483D
:101D9000FFF79EF900210948FFF79AF90122084947
:101DA0000848FFF7A3FB00BFFFF780FF0A20FEF7FC
:101DB000ABFBF9E77800002030000020C0000020D5
:101DC00002000020080100204FF04070E1EE100AF0
:101DD0007047000000000000000001020304060735
:101DE0000809000000000102030400000C1E0008A6
:101DF0000000002024000000E8010008301E000858
:101E0000240000208C070000040200080164640024
:101E100000000000010000000100000001000000BF
:101E20000100000010000000000000000024F40089
:04000005080001AD41
:00000001FF
